:020000041000EA
:1000000000B5324B212058609868022188439860DF
:10001000D860186158612E4B002199600221596106
:100020000121F02299502B49196001219960352056
:1000300000F044F80222904214D00621196600F024
:1000400034F8196E01211966002018661A6600F04E
:100050002CF8196E196E196E052000F02FF8012189
:100060000842F9D1002199601B49196000215960AB
:100070001A491B48016001219960EB211966A021F2
:10008000196600F012F800219960164914480160C1
:100090000121996001BC002800D000471248134993
:1000A000086003C880F30888084703B5996A0420EC
:1000B0000142FBD001200142F8D103BD02B5186610
:1000C0001866FFF7F2FF186E186E02BD00000240BE
:1000D000000000180000070000035F00212200005C
:1000E000F4000018222000A00001001008ED00E03C
:1000F00000000000000000000000000074B24E7A12
:1001000000200420F7010010CB010010CD010010E9
:10011000C9010010C9010010C9010010C901001077
:10012000C9010010C9010010C9010010CF01001061
:10013000C9010010C9010010D1010010D301001045
:10014000C1010010C1010010C1010010C101001067
:10015000C1010010C1010010C1010010C101001057
:10016000C1010010C1010010C1010010C101001047
:10017000C1010010C1010010C1010010C101001037
:10018000C1010010C1010010C1010010C101001027
:10019000C1010010C1010010C1010010C101001017
:1001A000C1010010C1010010C1010010C101001007
:1001B000C1010010C1010010C1010010C1010010F7
:1001C000EFF30580103800BE00BE00BE00BE00BECA
:1001D00000BE00BEF2EB88719CF10510BCF1051069
:1001E0003802001090A31AE71E481F49086006C88D
:1001F00081F3088810471D480068002801D019487D
:10020000F3E70DA40ECC002902D000F012F8F9E7B4
:100210001749184A002000E001C19142FCD116495B
:100220008847164988471649884700BEFDE701C937
:1002300001C29A42FBD37047BCF10510C0000020F8
:10024000C81A0020C40B061000000420000004207F
:10025000C40B061000100420001004200000000051
:10026000704700000000000008ED00E0000000D032
:10027000C81A0020588000204D430010D5020010FD
:1002800045430010F8B5C04606480749091A8B10C7
:10029000C90FC91810B5491003D0044B002B00D06A
:1002A000984710BDC81A0020C81A0020000000009E
:1002B000054B10B5002B03D00449054800E000BFF2
:1002C000FFF7E2FF10BDC0460000000014760020DA
:1002D00064E80110F0B58DB004F062F902E064202A
:1002E00001F01AFB04F0BCFC0028F8D0144804F01C
:1002F000A5F900F01DFA134F09AC0725142001F0F1
:100300000BFB200000F020FAA078655700F030FACF
:1003100001210300207A22880790E079114006909D
:10032000A07905906079049020790390E07802909C
:10033000A078009201902A00380004F001FADCE76E
:1003400068E8011078E801100C4B10B51B88002BF1
:1003500010D101220A4B197851400020197006F083
:10036000D5FD084CFA21200010F052F8200010F0C2
:100370005BF810BD0121024BEFE7C0461A80002058
:100380004D800020B82B0020F0B5C64600B5150002
:1003900082B004280DD113781B2B1DD00DD8052B4E
:1003A00036D0162B41D0032B03D191788D4804F021
:1003B000C7F902B080BCB846F0BD602B11D0EF2B5E
:1003C0002CD0332BF5D10821100010F087F8010054
:1003D000854804F0B5F9ECE71179844804F0B0F9E8
:1003E000E7E79378022BE4D1814C200010F036F936
:1003F0000100804804F0A4F9012120007E4A0CF09D
:10040000A3FA0028D5D001007C4804F099F9D0E780
:100410005279A9787A4804F093F9CAE791780D29BE
:1004200010D8784A8B00D3589F46774804F006F9D5
:100430006946A81C062210F08FF86846734917F029
:100440005FFCB6E7724804F07BF9B2E769790029EE
:1004500000D0A2E00122684C6E4B20881A700CF08C
:1004600011FA01006C4804F06BF905220321208881
:100470000DF0CCF89DE7674B1B78002B00D190E086
:100480000521280010F024F8242800D891E7EB7902
:100490002800A12B00D08CE72B7A112B00D088E705
:1004A000C0216B7CEA7B89001B020B401109090308
:1004B0000B43297CEC7A194388460021837C467BD8
:1004C0009C46564B877B2D7BC07C597241461980D8
:1004D000614699710F210A409C70DD701E715F7139
:1004E000D8711A7265E7697900296FD1A979002955
:1004F00074D001296ED04A4804F022F959E7280047
:1005000006216C790FF0E4FF21000200454804F059
:1005100017F94EE76C7906226946A81D10F01CF801
:10052000002C4AD13B4B032128001C700FF0D0FF58
:10053000314B1880684610F091F801003A4804F0F9
:10054000FFF8694639480FF0BDFF32E706226946D9
:10055000681D10F001F8684610F080F8010034487A
:1005600004F0EEF8032128000FF0B2FF01210CF097
:10057000C7F91EE72D4810F071F801002D4804F06E
:10058000DFF800221C4B1A80224B1A70234A2A4B98
:1005900003CB03C21B8813800BE7284804F0D0F874
:1005A00007E7274804F04AF8052128000FF090FFDC
:1005B0000100E81D10F008F8FBE6684610F04EF860
:1005C000220001001F4804F0BBF8DAE71E4804F0DF
:1005D000B7F8EEE61D4804F031F8EAE61C4804F0EE
:1005E0002DF8E6E630E90110C0E901107CE90110C0
:1005F0004C760020E4E801101A80002004E9011084
:100600004CE90110602D021094E90110B8E90110C5
:100610007CEB0110468000203CEA0110DC750020D4
:1006200010EB011050EB011028EA0110742E00208D
:10063000E4E9011034EB0110982D021060EA01107A
:1006400090EA011004EA0110B4EA0110F4EA011082
:10065000D8EA011070B5050006F062FC04000368DA
:100660005B6898470A222800034902F089FA236848
:1006700020009B68984770BDDC75002070B506F0BF
:1006800055FC051E38D1022012F068F81C4C1D4B99
:10069000FA212000A3600FF0BBFE20000FF0C4FE83
:1006A00018F002FD0DF0E6FB8021174889000CF0E0
:1006B00001F9164C20000CF01DF9052016F038FF4A
:1006C000002017F045FB1248446011F06BFF114900
:1006D000114810F079F80022104B1D80104B1A7051
:1006E000104A114B11CB11C21B880120138016F048
:1006F0002FFF0FF0B1FE70BD0C4803F09FFFFAE72B
:10070000B82B0020490300109C66002089030010CC
:10071000085500204C760020ACEB01101A80002018
:1007200046800020DC750020982D021098EB011007
:1007300010B504481DF066F9FA20800001F0ECF8CD
:1007400010BDC0467D06001030B5050085B001AC77
:100750002000FFF77FFF2288237A2A8062882B728D
:100760006A80A288AA80E288EA8005B030BDC046CF
:10077000803840B27047C04610B54024074A830015
:100780009A181268C0005440C0222240044C1B1921
:100790001A60044BC018416010BDC04604C001403F
:1007A00004D0014000400140064B8000C3181B6884
:1007B000C90092000A435A400C231340024A801891
:1007C0000360704704C0014004D00140800000294C
:1007D00004D0054BC018022303607047034BC018B8
:1007E00002230360F9E7C04604E0014004F0014041
:1007F000D0231B061B6810B514005A4253412F2208
:100800005B4293430D4A9B18C2089446072210404E
:100810006246800081403C32094892001150604697
:1008200080001B18002C04D0802292019B181960B4
:1008300010BDC02292019B181960F9E730410140B8
:1008400000400140F0B5D026C646360633680C4D50
:100850009B009046EA5804000F0000B5104209D1F1
:10086000390014430D204246EC5000F0A7F980BC3B
:10087000B846F0BD01F0EEFB33689B00EA58EFE7A5
:100880004476002010B504000D2000F07DFAD0233E
:100890001B061B6802499B005A58A2435A5010BDC0
:1008A000447600200123D022834012069362936194
:1008B000084A83009A1811684022514080320A4049
:1008C0000549C0005B181A60044BC018052343603B
:1008D0007047C04604C0014004D0014000400140C0
:1008E0008023DB051868000F7047C0460FB400B5C1
:1008F000084883B003F0A2FE049B002B07D005A993
:100900001800019103F0EAFC034803F097FE012070
:1009100003F0FCFCC0EB011078EB0110EFF310804A
:1009200072B6034A1368002BFCD0BFF35F8F704789
:100930002C0100D0BFF35F8F0022024B1A6080F3BE
:10094000108870472C0100D070B58C461600EFF36C
:10095000108472B60F490B68002BFCD0BFF35F8F79
:100960006346DB08C5180722C05C63461A400123B2
:1009700093401A000240034207D118432870BFF386
:100980005F8F0A6084F3108870BD61463000FFF706
:10099000ADFFC0462C0100D0F8B5CE4647468C4688
:1009A00080B51C00EFF3108872B61C490B68002B51
:1009B000FCD0BFF35F8FA24221D80723994602E003
:1009C0000132944218D34946012611408E40D30883
:1009D000C718C35C1E42F3D1100033433B70BFF312
:1009E0005F8F00220D4B1A6088F3108800280EDB01
:1009F000C0BCB946B046F8BD01204042EFE7BFF3A6
:100A00005F8F00230B6088F310880120404263460B
:100A1000002BEDD00898FFF769FFC0462C0100D0ED
:100A200010B584460A00EFF3108472B60B490B68C8
:100A3000002BFCD0BFF35F8F0723D00813400122A7
:100A40009A4063461B5C934362461354BFF35F8F27
:100A500000230B6084F3108810BDC0462C0100D029
:100A6000044A1078431CDBB2172B00D910231370F3
:100A70007047C0468813002000B5054B83B00100C5
:100A8000009318221F230348FFF786FF03B000BD21
:100A9000D0EB0110402E00200021044B044ABFF38C
:100AA0005F8F02C39342FAD17047C046000100D065
:100AB000800100D0084B094A1360094A1360094AB3
:100AC0001360094A1360094A1360094A1360094A0E
:100AD0001360094A136070478080808000E400E062
:100AE00004E400E008E400E00CE400E010E400E0CE
:100AF00014E400E018E400E01CE400E01F231840C8
:100B00001E3B8340002905D0C021044A49005350B0
:100B100013607047802201498B50FAE700E100E042
:100B200001228240034B1B6813405A1E9341D8B2E6
:100B30007047C04600E100E001238340014A136092
:100B40007047C04600E200E0054B10309B68800013
:100B5000C358044A00209B1A2F229A4240417047F2
:100B600000ED00E08C13002070B50D00EFF310864F
:100B700072B60F4A1368002BFCD0BFF35F8F0D4B8A
:100B800010309B6884001B590B4A934203D09D424E
:100B900001D001F05FFA074B9B681D51BFF35F8FD7
:100BA000BFF35F8F0022024B1A6086F3108870BD7E
:100BB000240100D000ED00E0C1010010F0B5DE46D8
:100BC00057464E464546E0B5824683B08B461700F1
:100BD000EFF3108872B6604A1368002BFCD0BFF3A5
:100BE0005F8F00255D4B5D579946002D00DA9AE036
:100BF0004A466B005A4C5E19B6000193A319009344
:100C00009B791370574B9A68534610339B00D15809
:100C100099460B1B2F2B32D9534B994200D098E0A9
:100C2000019B0236ED18514BAD006353504BA61992
:100C3000043B9B1B4F4A1B055B0D651913436B80DF
:100C40004D4B0121AB80FF23AB715B46AB60009B3A
:100C5000EF710B4319004A46424B9B689950BFF312
:100C60005F8FBFF35F8F00223B4B1A6088F31088C1
:100C700003B0F0BCBB46B246A946A046F0BD012079
:100C80000A008243D379B446BB422DD83B4BB51CF6
:100C9000190013001B1B5B415943090D8C46334B54
:100CA0006519A353324B0099043B5B1B1B05314D67
:100CB0005B0D2B4304364B80A619131F9B1B1B0592
:100CC0005B0D1D4363468B715B468B602C4B8D80A7
:100CD000CF7113600143BEE75800C0188000201890
:100CE000C679BE4225D902000623D356002BF3DA7B
:100CF0009A46131D9C4623486346009E9571043E08
:100D0000F61A36051B4B760D1E43019B96805A1929
:100D100053469200A418A3715B46194AA080226032
:100D2000E771A36097E701F095F900254B465D5701
:100D30005EE766469A46131D9C4690880436400539
:100D40000015A6196044801B00050A4E400D304373
:100D5000D2E701F07FF963E7240100D0478000204B
:100D60008C13002000ED00E0C101001000A1FFFF86
:100D7000BC13002000E0FFFF01BDFFFFAAAA000096
:100D80000148804701BD0000F0B54546DE465746A4
:100D90004E46E0B50D0083B0EFF3108872B6604A9E
:100DA0001368002BFCD0BFF35F8F5E4B5E499A68DF
:100DB000030010339F00D45999468C423ED0AC4278
:100DC0004FD05A4EA21B2F2A38D8594B1A689C462E
:100DD00013000122824013401F22024001209A4644
:100DE00090406346802283469850BFF35F8FEFF3B5
:100DF00005830193002B36D0994501D001F02AF9E3
:100E0000012322009A439068854208D176E04B0086
:100E10005B189B00F3189868854236D01A000621AB
:100E200051560029F3DA854254D05346002B27D07F
:100E3000C02259463E4B520099501960394B9B686D
:100E4000DC51BFF35F8FBFF35F8F0022344B1A601A
:100E500088F3108803B0F0BCBB46B246A946A04652
:100E6000F0BD0C00EAE7220001339A439068854206
:100E7000D5D106201056130000280ADA0C0031E004
:100E8000802359462A4AD150D8E706201856002810
:100E900021DB42001118890075188946A9689960FC
:100EA000E979D971062169569971002924DBAD8849
:100EB000F11A6D052D154D44491909051D4D490DB2
:100EC0002943998013181C4A9B001178F3189971D3
:100ED0001070AAE713000199002914D1FF31917114
:100EE0001649918014490A789A71154A9B1B5B41F7
:100EF0005A43120D0A7098E71049E2E7062010568F
:100F000013000028C5DA0F4A0F49D21A083A5002D6
:100F1000400D014399800D4952080A43DA8084E765
:100F2000240100D000ED00E0C10100108C1300206E
:100F300000E100E000E0FFFF4780002001BDFFFF6F
:100F4000AAAA0000C613002000F0FFFF00F8FFFF70
:100F5000084A83089B009B181A6810B514000322E6
:100F60001040C000FC3282409443220081400A437A
:100F70001A6010BD00E400E00123034370B59C46F5
:100F8000EFF30581EFF3108572B6214A1368002B49
:100F9000FCD0BFF35F8F1F4B04001F4AE41A64416B
:100FA0006243120D1D4C8900A66852B27658664500
:100FB0001CD00621595691421CD0122159569142FB
:100FC00022D01E215956914220D02A21595603245D
:100FD000914210D0124B19781A708171BFF35F8F54
:100FE00000220B4B1A6085F3108870BDA3680D4C6E
:100FF0005C50EFE700246100091989005B18FF21AC
:10100000997109499980E5E70124F4E70224F2E7A0
:10101000240100D08C130020AAAA000000ED00E0FB
:1010200047800020C101001001BDFFFF1F2110B546
:10103000091A0248FFF7F4FC10BDC0465580002095
:1010400000B5074B83B0010000930022052305483B
:10105000FFF7A2FC002801DB1F23181A03B000BD14
:10106000ECEB01105580002070B504000E00150057
:10107000FFF7F6FC0100200000F006F8A680E580EE
:10108000BFF35F8F70BDC046024BC9188900016075
:101090007047C0464000003470B5114C114DAC4251
:1010A0000FD2FF262368002B0CD0FFF7D9FC0100DC
:1010B0002000FFF7E9FFA680BFF35F8F0834AC4242
:1010C000F0D370BDFFF7CCFC01002000FFF7DCFF80
:1010D0002671BFF35F8F0834AC42E3D3F1E7C0461B
:1010E000B81A0020C81A002010B50400FFF7B8FC99
:1010F00001002000FFF7C8FFFF232371BFF35F8FBC
:1011000010BDC04610B50400FFF7AAFC0100200086
:10111000FFF7BAFFFF23A380BFF35F8F10BDC04668
:1011200010B504000120FFF7A7FC034BC018800096
:101130002060BFF35F8F10BD40000034034BC9181F
:1011400089000160BFF35F8F7047C04640000034E4
:101150000A4B1968EFF3108072B60A68002AFCD0B7
:10116000BFF35F8F1B68BFF35F8F00221A6080F3AD
:10117000108840BF002000217047C046F47E002048
:10118000F0B5DE4657464E464546E0B585B0EFF32E
:10119000058303221A40B34B91005F58012393400B
:1011A0009B4602925A468846AF4B1A60AF4B039358
:1011B0005B46AF4843630823FE5E002E37DABB88E8
:1011C0001BB2002B00DBA4E0BB79002B00D0E5E0D4
:1011D0000823F95E002920DB4B007A695B18DB00ED
:1011E000D3189D68DC686B1C00D104E1A0480100A5
:1011F0004144826A0B69AE1A9B1A9E4215D30123A1
:10120000026A029883401A420FD0994800F0A8FC65
:101210008C4202DCCCD18542CAD940BF05B0F0BCBB
:10122000BB46B246A946A046F0BD0D61EDE77A691E
:10123000730091469B19DB0099444B469C68DD681E
:1012400000F08EFC8D42BADC00D1F6E0002D00DA11
:10125000DBE04A464B4652691B699246039A934229
:1012600000D1CCE04A460821785E528800045146FD
:1012700010439847009001910099019A0B00134385
:1012800000D1C2E013000A00002B00DBD9E02000EF
:101290002900801A99414B469860D96000229B5ED4
:1012A000002B00DA8BE75D007C69EA18D200A218F7
:1012B00000949468D268A2468A4200DD7FE702D19A
:1012C000844200D97BE70824A4463B81BC44009CAF
:1012D00000972F006546B4463E0006E05E00F21817
:1012E000D200A2189768D268BA468A4207DC00D1B9
:1012F000B4E0F318DB00E518E35E002BEEDA664697
:101300004A46009F13802E80BB881BB2002B00DA58
:101310005AE73A69EFF3108172B61368002BFCD0DC
:10132000BFF35F8F0123BE885B42BB8036B23B694F
:10133000BFF35F8F00221A6081F31088002E00DA5D
:1013400042E73B0008333A0099467D6973009B19D8
:101350000824115FDB004846EB18002913DB9C686A
:101360000093A446DC6806E0A34240D00023F95E67
:101370003800002906DB4F007F18FF00EF19FB68DB
:10138000A342F1DD009B068000201E5E1980002E26
:10139000DCDA1700BB79002B00D119E70023BB7101
:1013A0000823F95E4B1C00D137E73D000835AC46F9
:1013B0007C6903E084464B1C00D109E74B005B18B5
:1013C000DB00E0180A00E15E43881BB2002BF1DA73
:1013D00001256D42EE178560C66008257B5F93424C
:1013E000E9D0634619803B8903803A81E3E7BB6813
:1013F0006345BBD9C6E7631C00D0F7E605E7534653
:1014000050461B699847002823D14B461B883A69F0
:101410003B81EFF3108372B611680029FCD0BFF353
:101420005F8F49467A880A803A697E80BFF35F8F72
:101430000021116083F31088C1E6844200D805E7DB
:10144000BDE60B4800F08CFB009B019CC01861417D
:1014500021E753460CCB009201930DE7824500D85B
:1014600047E74CE7347600203C70054081110010BE
:101470000040054070B52D4C2569002D04D00A218F
:101480002B48FFF701FE70BD2A4E0321294800F0CA
:1014900045FBE660FFF7E4FA274B0322C018D02390
:1014A00022701B061B6801216370244B8000A3601F
:1014B0000F2320610220638063694942A180198063
:1014C0000231198647311D83585218315A527532EC
:1014D0005C399952183201319952183201319952BE
:1014E000183201319952083518329D5202311832A2
:1014F00099521832013199521832013199521832E9
:1015000001319952183201319952183201319952F0
:101510000B4B0C49DC6001303562FFF725FB0121E4
:101520000320FFF7EBFA084B1D60A8E7D413002057
:10153000F47E00200040054040000034FFFF100012
:101540003476002081110010386005400048704753
:10155000D4130020F8B5050018200F0001F0B2FAEE
:10156000041E3AD01821380001F0CAFA0121606146
:10157000280000F0E5FAE5600600FFF771FA184B65
:101580002670C018D0231B061B68800063700123DF
:101590005B422381A380FB18206167816380002F59
:1015A0000AD079006369C919C9000E4AC9181A809E
:1015B000183301328B42FAD10127B7400A4BB200EF
:1015C00030000A492F62D450FFF7CEFA01213000D3
:1015D000FFF794FA064BED182F602000F8BDC046C7
:1015E00040000034FFFF000034760020811100101D
:1015F00038200000124B70B5040098421ED0012321
:101600000578C668AB400F4A3362B21813600121F7
:101610002800FFF773FA28000B49FFF7B5FB2900F4
:10162000300000F085FA00212278084B60699200B2
:10163000D15001F087FA200001F084FA70BDC04655
:10164000D4130020383000008111001034760020BF
:10165000F8B51F0008AB1B7804001600002B07D15B
:1016600000F086FA32003B00121A8B41002B51DB4E
:101670002269EFF3108C72B61368002BFCD0BFF315
:101680005F8F0223E15E256900293ADB4B00606928
:101690005B18DB00C218C35A6380BFF35F8F00235F
:1016A0002B608CF31088069B9660D7601361079BB4
:1016B0005361538801335B045B0C181C002B1ED054
:1016C00083B25080080418432569EFF3108672B680
:1016D0002B68002BFCD0BFF35F8FA3881380A18001
:1016E0002369BFF35F8F00221A6086F31088237886
:1016F00001329A400849E3685B181A60F8BD01207E
:10170000DEE7BFF35F8F00232B608CF3108801208E
:101710004042F3E70020F1E73C20000070B582B0C2
:101720000092019301000269EFF3108472B613680E
:10173000002BFCD0BFF35F8F0223C85E0D69002829
:101740003FDB4A69430016001B18DB00D218F35A2E
:101750004B80BFF35F8F00232B6084F31088069BC0
:101760001361079B5361009B019C9360D460538875
:1017700001335B045B0C1D1C002B20D0ACB20304B6
:10178000558023430D69EFF3108C72B62C68002C42
:10179000FCD0BFF35F8F8C88148088800A69BFF308
:1017A0005F8F002010608CF310880A780130904021
:1017B000CA68084952181060180002B070BD0125AF
:1017C000DCE7BFF35F8F00232B6084F31088013BBD
:1017D000F2E7C0463C20000010B543890A1493424A
:1017E0001ADD53009B184269DB00D3180469EFF33C
:1017F000108C72B62268002AFCD0BFF35F8F5A8823
:10180000090494B2090C8A4208D00369BFF35F8FC0
:1018100000221A608CF31088002010BD094A224370
:101820005A80012302698371BFF35F8F0021116029
:101830008CF31088027804499340C2680120521842
:101840001360EAE70080FFFF3C200000407870470B
:10185000F0B506000F0006246442E517A4197D4187
:1018600083B08D4212D80FD000F082F922002B00F5
:10187000121A8B41002B13DC002B41D030003900B1
:1018800000F080F903B0F0BD8442EDD900240025BA
:1018900000F06EF922002B00121A8B41002BEBDDB9
:1018A00000F066F922002B00121A8B41002B0ADB94
:1018B00000230193144B2200009314482B00FFF7E0
:1018C0002DFF0130DAD02900114A1248536A99429B
:1018D00004D8956AA542D1D29942CFD10568EFF3D9
:1018E000108C72B62B68002BFCD0BFF35F8F03689F
:1018F000BFF35F8F00251D608CF3108820BFE5E7E4
:10190000002ABBD0CCE7C04651110010D4130020F0
:1019100000400540F47E0020F0B5C64600B582B018
:10192000040000F025F9FA2206000F002000002331
:101930000021920001F076F88019794104000D1E13
:1019400002DA01242E4D644206267642F717361934
:101950006F41AF4214D811D000F00AF932003B00B9
:10196000121A8B41002B15DC002B46D020002900D9
:1019700000F008F902B080BCB846F0BDA642EBD931
:101980000026002700F0F4F832003B00121A8B41C9
:10199000002BE9DD00F0ECF832003B00121A8B411D
:1019A000002B0ADB00230193164B320000931648EC
:1019B0003B00FFF7B3FE0130D8D000233900B0461A
:1019C0009C46124A1248536A994204D8966A464580
:1019D000CCD29942CAD10668EFF3108772B6336849
:1019E000002BFCD0BFF35F8F0368BFF35F8F6646A9
:1019F0001E6087F3108820BFE5E7002AB6D0C9E74C
:101A0000FFFFFF7F51110010D4130020004005405C
:101A1000F47E0020F0B5CE46474680B504000D00A8
:101A200085B0EFF305868946002E10D03649002098
:101A30004B6AAB4206D38A6A5B1B591E8B41A2429A
:101A40004041184305B0C0BCB946B046F0BD2F4F69
:101A5000FB683A7898461800039200F081F8039AE0
:101A6000131D42469B009B5822001B1A9C462B00CC
:101A7000121A8B419E4210DC0DD020BF224A00205A
:101A8000536A4B45DED3926A5B1B591E8B41A242BF
:101A900040411843D6E79445EFD900F069F8220099
:101AA0002B00121A8B41002B1BDB00230193184BD8
:101AB0002200009338002B00FFF730FE002810DDD5
:101AC000114B5A6A4A451CD39B6AA34217D30100A3
:101AD0003800FFF781FE0C4A0020536A4B45B1D312
:101AE000D1E7094A0020536A4B45ABD30020926AE4
:101AF0005B1BA24240415A1E93411843A2E74A454C
:101B0000E5D120BFE3E7C04600400540D4130020E4
:101B100051110010004870470040054010B5024ABE
:101B20000248FEF711FF10BD08EC0110442E002002
:101B300010B50248FEF774FF10BDC046442E0020C9
:101B400000B5054B83B00093002203230348FEF742
:101B500023FF03B000BDC0462CEC0110442E002032
:101B60000300416A0A00986A596A8A42FAD17047AA
:101B7000034B596A0A00986A596A9142FAD1704730
:101B800000400540064A536A9942FCD807D1044BED
:101B900002E05A6A914202D19A6A9042F9D870479B
:101BA00000400540F8B5DE464E4645465746E0B58E
:101BB00005008B4618000A99914600F0B9FB0A9B74
:101BC0006C001E026419304BA400E4186368804660
:101BD0009E4200D966602F1FFBB29A46012B2FD977
:101BE000C0238022294FAD009B0179591201E318CF
:101BF0001A6000291BD14B4622685B015340E0224A
:101C0000134080225201A21813605346012B2FD992
:101C1000802380229B01E31812011A60434666600C
:101C20007B51F0BCBB46B246A946A046F8BD7869D8
:101C300000F07EFB013043001B18033BFDD2DAE7C6
:101C40005B46012BCCD1C02303229B01E3181A6011
:101C5000023AA3681A42FCD04A46236852015A400D
:101C6000E023134080225201A218084F1360AD00F8
:101C700058460323216841400B40136001228240F3
:101C8000A3681A42FCD0C3E7008000404C2E00201D
:101C9000F0B5D6464F464646440098462418324B87
:101CA000A400E41863688A469146C0B5FF2B02D8A9
:101CB00080235B006360061FF6B2012E2FD9C0237C
:101CC00080222A4F85009B0179591201E3181A607E
:101CD00000291BD14B4622685B015340E022134090
:101CE00080225201A2181360012E30D98023802255
:101CF0009B01E31812011A6080235B006360434676
:101D00007B51E0BCBA46B146A846F0BD786900F008
:101D10000FFB013043001B18033BFDD2DAE75346AB
:101D2000012BCCD1C02303229B01E3181A60023A95
:101D3000A3681A42FCD04A46236852015A40E02365
:101D4000134080225201A218084F136085005046AC
:101D50000323216841400B40136001228240A368A5
:101D60001A42FCD0C2E7C046008000404C2E002042
:101D7000014B8000C05870474C2E0020F0B5C6467D
:101D8000040000B52348160098460D0000F0D0FA74
:101D90000100300000F0CCFA4346069A1B041203FF
:101DA00013439C4623680600002B22DB1A4B1B487A
:101DB000E218531E9A4180235242120B9B011203D8
:101DC000D218174B1A60174B1A60130001688B4327
:101DD000FBD12122144B2560E318A6601A6022680B
:101DE000002AFCDA6246E26008221A6080BCB8462B
:101DF000F0BD3F2322681340AB42D7D1A3681B0537
:101E00001B0D8342D2D1EE22E368D2021340634518
:101E1000CCD1EBE7001BB7000040FDBF08C000407D
:101E200000E0004000F000400430000010B58024C5
:101E30001C4BE4051C6000281AD001231A4C1843DF
:101E40001A4BDC611A4C44401C6259629862802132
:101E5000144BC9051960174817490860E021C904E7
:101E60001960002A07D18022144B12061A6010BD97
:101E70000E4BD861EBE753019B1A9B009A18802305
:101E800012015B049A4209D213000D490B60074B03
:101E90005A608022094BD2051A60E8E7094B1A0004
:101EA000F3E7C04600B00540D3C007B0008005404E
:101EB0002D3FF84FFCFF01000820014000A0054025
:101EC000F4750020FFFFFF008023024A9B000B43B4
:101ED000D362704700800540002310B50100988A46
:101EE0001B8B984710BDC046162310B501001888FB
:101EF0005B88984710BDC046F8B54746CE4680B5CA
:101F00000F1E18D01423994604330400002501261F
:101F100098464B461888434621681B88984701C459
:101F2000431E984101350640AF42F2D13000C0BC9B
:101F3000B946B046F8BD0126F8E7C046002370B5A3
:101F400004000D00988A05491B8B98470300002068
:101F5000002C01DB0130A0402900984755420000C9
:101F6000D022120612680A4B920010B5D35883F3A0
:101F70001088FA2200239200002100F053FD1BF08C
:101F8000BFFD4342584101234042984310BDC04623
:101F90004072002070B5D02405000120240623687B
:101FA00058401BF0D1FD002813D0FA2200239200E4
:101FB0002800002100F036FD1BF078FD00280BD032
:101FC0002268EFF3108172B60020054B9200D150C9
:101FD00070BD04204042FBE702204042F8E7C046C3
:101FE0004072002010B5041E01D01BF039FD200006
:101FF00010BDC04600487047EC130020F8B507003C
:102000000E001500FFF7F6FF041E0AD043682800F3
:102010009847002804D13000B8472800A3689847A3
:10202000F8BD04204042FBE7AA23064A1B011360C7
:102030008D235B00D3600449044B19605368002B67
:10204000FCDA70470040024000B0FA000060024035
:102050007047C04610B50148FEF748FC40EC01103F
:1020600070B5074D074EB54209D20024013E761BDC
:10207000B608013608CD01349847B442FAD170BD94
:1020800020E801105CE8011070B5074D074EB5421D
:1020900009D20024013E761BB608013608CD013472
:1020A0009847B442FAD170BD54E801105CE80110C1
:1020B000054B064A06491A60064A074B1A6010008B
:1020C0000B689843FBD1704700E00040BFCDFBFE9A
:1020D00008C00040FE7F3C0000F00040044BDB6C79
:1020E000002B03D18022034BD2021A607047C046F6
:1020F000000011504C201150044A054B1A60054A4B
:102100001368DB018033FBD17047C046FFFFFF013E
:1021100000F0004008C000404022034B9A675A6715
:102120001A67DA667047C04600F0014010B5FEF746
:10213000B3FC10BD70B52849284D294E6D1AAC105E
:102140002200302C00D930223000920000F018FD1F
:10215000BC2D3DD823002A3B224A052B1DD9302017
:1021600075196D07A446001BEB0F002D03DA611CE7
:102170008C46A1007250C01AE3189B004108F31866
:10218000C900C9181A605A6008339942FAD101236C
:1021900003421DD0984360440400A300F250631C26
:1021A0002F2C15D09B00F250A31C2E2C10D09B007E
:1021B000F250E31C2D2C0BD09B00F250231D2C2C35
:1021C00006D09B00F250631D2B2C01D09B00F250D7
:1021D000054B9E6070BDC04600010010C00100109C
:1021E00000000020C101001000ED00E0002310B548
:1021F000294C82B0A367FFF717FF0122274B1A6013
:10220000636C012BFCD10322254B1A60224A936B8D
:10221000012BFCD1013300930121224A22480433CF
:10222000FFF7ACFD052301210093204A2048FFF76A
:10223000A5FD0022022104201E4BFFF729FD0022EC
:10224000012105201C4BFFF723FD00220021072060
:102250001A4BFFF71DFD002200210820174BFFF746
:1022600017FD8023DB000093002200210920134B7F
:10227000FFF798FC0022104B00210620FFF708FD15
:102280000420FFF775FD0E4900F052F80100002010
:10229000FFF71AFE02B010BD008000403CB00040C5
:1022A00030B00040002F685900800240008C864703
:1022B00000C00240001BB70040597307006CDC02ED
:1022C00040420F0001480421014B18470014002030
:1022D000F91E0010014B9B681847000000140020F5
:1022E000124A936F9B0815D29066D166002905D0DB
:1022F000FFE7FFE7FFE7516F106F704704B58021DC
:102300000906C2175140002800D0C8431CF020FA2B
:10231000002104BDF0B5146E556E576F166FFFF7B0
:10232000E3FF1466556657671667F0BD000000D0DE
:10233000114A936F9B0813D210665166002905D08D
:10234000FFE7FFE7FFE7516F106F704704B5002804
:1023500001D00020C0431CF0FBF9002104BDC046A1
:10236000F0B5146E556E576F166FFFF7E5FF1466E4
:10237000556657671667F0BD000000D094464A4A7C
:10238000926F9208624601D228E0C046F0B5464EF0
:10239000346E756E776F366F00F020F89446424ABF
:1023A00014665566576716676246F0BD94463E4A06
:1023B000926F9208624601D254E0C046F0B53A4EA0
:1023C000346E756E776F366F00F04CF89446364A6F
:1023D00014665566576716676246F0BD002B24DB0E
:1023E00011D000293EDA00B5C943404200D1013185
:1023F00000F038F8C943404200D10131DB4352427A
:1024000000D1013300BD002AEBD1002801D1002901
:1024100005D00020C90FC90701D1C043410800B54C
:102420001CF06EF90022002300BD00B500290ADB74
:10243000DB43524200D1013300F014F8C94340425B
:1024400000D1013100BDC943404200D10131DB431D
:10245000524200D1013300F005F8DB43524200D173
:10246000013300BD002923D1002B18D1002A0CD044
:10247000BC460D4F38667A6600210023FFE7FFE770
:10248000FFE77A6F386F67467047002801D007482A
:10249000010000B51CF034F90022002300BD020049
:1024A0000B00002000217047000000D0FFFFFFFF5D
:1024B000002B00D0BFE0130C28D1002AE7D080B455
:1024C000114F39667A66FFE7FFE730B4040C7B6F83
:1024D000396F1B0423433B667A66FFE7FFE7FFE79C
:1024E000C04684B27B6F3D6F1B0423433B667A6614
:1024F000FFE7FFE7C04600232C042D0C7A6F386FEE
:1025000000196941B0BC7047000000D0F0B5944696
:102510000025140E01D112020835140F01D1120149
:102520000435940F01D192000235D40F01D152002D
:102530000135D40B0134254F7C66254C3C660E0CCE
:1025400093B2FFE7FFE7FFE73C6F6643360C770384
:10255000BE467343DF0B5B04C01AB941130C7343CF
:10256000DB18C91ACE086643360CB64493B27343DF
:102570001F0F1B01C01AB941130C73431F0B1B051E
:10258000C01AB941860D8F023E436643360C092DB1
:1025900024DB520A7243801A7703460A6643360CDC
:1025A00016235B1BDE40DF40BF1964466643821B77
:1025B0007046043506330100D940A840C01900D345
:1025C0000131A24206D20023F0BD0000000000D07D
:1025D000FFFFFFFF121B0130F3D3F1E709277F1B39
:1025E000FE406446A2B27243801A00D20139220C26
:1025F0007243130C1204821A99410B007046043581
:1026000013370100F940A840801900D30131002B95
:1026100002D1A2420AD2F0BD013000D30131121B17
:10262000FAD2013BF8D1A24200D2F0BD013000D372
:102630000131121BF7E7F0B51C0C00D080E00CB4A0
:1026400000251C0A04D11B02160E33431202083562
:102650001C0B04D11B01160F3343120104359C0BD4
:1026600004D19B00960F334392000235DC0B02D15C
:1026700092185B4101351C00971864410134464FA4
:102680007C66464C3C660E0CFFE7FFE7FFE7C04662
:102690003C6F6643360C7703BE4697B27743C01B48
:1026A00000D20139C01B00D201399FB27743C91B48
:1026B000C91B170C77437E04FF0B801BB941CE0862
:1026C0006643360C0C2D33DBB644120B1F053A4320
:1026D0001B0B97B27743C01B00D201399FB27743DF
:1026E000C91B170C77433E043F0C801BB941860D74
:1026F0008F023E43664329277F1BFE400C3D7746F1
:10270000AF40BF1930BCA2B2ABB272437343801A60
:102710009941220C7243130C1204801A9941020051
:102720000B000137001BA941F9D2781E0021F0BD32
:102730000C277F1BFE4077467F0BAF40FF19E0E779
:1027400000245D1C07D0144F7D663966FFE7FFE764
:10275000FFE7FFE73C6F95B29EB265436643401BBF
:10276000B141150C1E0C6543664336042F0C3E43E5
:102770002D04401BB141994204D202000B002000FD
:102780000021F0BD01D19042F7D3801A9941013464
:102790009942F2D3F6E70000000000D0FFFFFFFFF0
:1027A00048404140484018B4134B5B68019308BD52
:1027B00018B4114B1B68019308BD94460F4A926FE1
:1027C000920805D2624618B40B4BDB68019308BD32
:1027D0000A4AF0B5146E556E576F166F6246FFF7D2
:1027E000F2FF064A1466556657671667F0BD18B4BF
:1027F000014B9B68019308BDB01D0020000000D074
:10280000FFB550404240504059404B40594000E0D5
:10281000FFB5154F4C00640D03D0BC4204D10C032E
:1028200014D80020090D09055C00640D03D0BC42DA
:1028300004D11C030AD800221B0D1B0501264B40A6
:1028400009D44B4003D58B4200D18242FFBD99424F
:10285000FCD19042FFBD0B43DB1803431343F5D07B
:10286000C9434918FFBD0000FF07000000B5FFF78E
:10287000CFFF804100BDC04600B5FFF7C9FF01D9B9
:10288000002000BD012000BD00B5FFF7B9FF01D950
:10289000002000BD012000BD00B5FFF7B1FF804161
:1028A00000BD012040054A00121804D85A00121831
:1028B00001D8002070470120704700000021002847
:1028C00005D17047C1174840401AFAD0C90713B55F
:1028D000064B1B6898470CBC441CA2401005120B09
:1028E0000349091B09051943114310BDF07D002060
:1028F0001F04000010B54C00620D8023D218DB00CD
:10290000D21A5B057E2A10DD9E3A13DACC17090332
:10291000490819435242D140640001341532202A3B
:1029200005DAD0400843604310BD002010BD0846C2
:10293000604310BDC80FC018013810BD18B4024B59
:102940005B6A019308BD0000B01D002010B501486E
:10295000FDF7CCFF4CEC0110132370B51D78012D51
:1029600019D014DD1D48FFF7BFFA06001C48FFF719
:10297000BBFA1C4C80223100200000F001F9022D2E
:1029800006D01948FFF7A8FA184B186070BD154C0F
:10299000174BA364F5E7174B124C23606360A360E9
:1029A000E36023616361A361E36123626362A36205
:1029B000E36223636363A363E36323646364A364E5
:1029C000E36423656365A365E36523666366A366C5
:1029D000E36623676367A367E367D9E753440000AF
:1029E00053460000B01D00204C330000F07D002055
:1029F000F92900104D29001007B5604601880A0A20
:102A00000230DF2AFAD1C9B2820804D30288408892
:102A10000004104300E00068014A5050039007BDD5
:102A2000B01D002051434343C9188C46110C83B29A
:102A30004B4310B4040C614392B280B250436243E2
:102A40001C041B0C001910BC59411304120CC018B3
:102A5000514161447047000010B50148FDF746FF41
:102A60005C2D0210132310B51C781148FFF73CFAB7
:102A7000012C0BD004DD010080220E4800F080F80C
:102A80000D48FFF729FA0D4B186010BD094C0100E5
:102A90005422200000F074F82200200008498032FF
:102AA0000368002B00D1016004309042F8D1E7E7C1
:102AB00053460000F47D00204C330000F07D0020E0
:102AC000592A001070B504000A4E30001BF098FE21
:102AD00020001BF0A5F8050030001BF009FE002DBA
:102AE00005D0054B2C199C4201D8280070BD034825
:102AF000FDF7FCFEB81A00200000042064EC011071
:102B0000F8B507000C000C4E30001BF079FE2100D8
:102B100038001BF01FF8050030001BF0E9FD002D08
:102B200006D07C43054B2C199C4201D82800F8BDE7
:102B30000348FDF7DBFEC046B81A00200000042061
:102B400064EC011070B50500054C20001BF058FE28
:102B500028001BF06FF820001BF0CAFD70BDC046B6
:102B6000B81A002001480421014B18471014002016
:102B7000F91E0010014B1B681847000010140020BC
:102B8000014B5B6818470000101400207047C046D6
:102B9000F8B5DE4657464E464546E0B599460D9B8C
:102BA0000700884693469B0728D00B9B002B3CD000
:102BB00016000B9C0A9D3619321B013C4B464146C0
:102BC000285DB847002CF7D135000D9B9B070ED52B
:102BD0005B46EC1A0C9BA34209D91E002A004B4607
:102BE000414620200134B8470135B442F6D32800CD
:102BF000F0BCBB46B246A946A046F8BD0B9B0C9A5A
:102C0000934214D213005D460C000B9A9E1A76195B
:102C10002A004B46013521002020B847B542F7D1A4
:102C20000B9BA046002BC4D1E1E71500CDE75E4623
:102C3000002BBED15D46DAE7F0B54F46D646464694
:102C4000C0B584B09C460EAB1F78129B9146BA4625
:102C50000D9C109E119D9B074CD4002D41D1B44278
:102C600048D20123129F1F40B8460C9B5F1E3023A1
:102C700003E001343B55A64201D9202CF9D143464B
:102C8000002B00D187E00C9B5F1E3023A54204D8A7
:102C900030E001343B55AC422CD0202CF9D1129BB2
:102CA000DB060DD5129B5B0557D4A64267D0A54223
:102CB00065D00F9B102B53D0022B5BD0202C36D12C
:102CC0002023129C01930C9B4A4600930394634675
:102CD0000295FFF75DFF04B0E0BCBA46B146A846D6
:102CE000F0BD0123129A13409846012313422DD1BF
:102CF000B442BAD3129BDB061ED5129B5B05D8D417
:102D0000002CD2D10F9B102B60D00F9B022B71D0C7
:102D1000302301240C9A13705346002B11D1129BBF
:102D20005B0740D52B260C9A631C1655C9E7230078
:102D3000013430260C9AD654202CC1D05346002B97
:102D4000EDD02D260C9A631C1655BAE7002F34D00F
:102D5000013DB44200D288E795E70F9B102BAFD11D
:102D6000129B9B063CD5202CAAD058230C9A1355B5
:102D70000134A3E7202CA3D02300013407E0631E15
:102D8000012CBFD00F9A102A36D0022AD1D1622648
:102D90000C9AD65492E7129BDB06CDD5129B5B05AD
:102DA00000D482E785E7129A2300160700D488E74B
:102DB00020260C9A0133165583E70C2313405F1E1F
:102DC000BB41ED1AB44200D24FE75CE7129B9B0671
:102DD0000ED478230C9A02241370302353709BE78F
:102DE000202C00D16CE778230C9A1355013465E749
:102DF0005823EFE76033EDE70C9AA61EB618129A37
:102E0000920602D55822327093E77822327090E70A
:102E100010B5002800D110BD01F0C6FBFBE7C0468D
:102E200010B5002803D04A680B681100984710BD00
:102E3000F0B54E46DE4657464546E0B595B083466A
:102E40008946924698461E9A1F9B10001900209EA4
:102E5000FFF727FD002800D0D2E11E981F9901221C
:102E6000C44B5242FFF702FD002800D001E11E983A
:102E70001F990122C04B5242FFF70EFD002800D0DF
:102E8000D6E01E981F990022BC4BFFF705FD0028D5
:102E900000D0B5E01E981F990022B94BFFF7E6FC61
:102EA000002800D0ACE01E981F9900220023FFF7F5
:102EB000DDFC002800D0D1E000230B93229B5B05B2
:102EC00000D406260024302306E006AA0134173277
:102ED0001355013E202C01D0092EF6D81E981F99BB
:102EE000FFF708FDA74BF2009B180CCB05000892DA
:102EF0000993FFF7E7FC02000B001E981F99FFF7EC
:102F000052FC089A099BFFF772FC06900791FFF7A5
:102F100015FD0700FFF7D2FC02000B000698079989
:102F2000FFF741FC0022984B06900791FFF7B4FC95
:102F3000002800D1E9E001373800FFF7BFFC0200AC
:102F40000B0008980999FFF797FC002801D000278B
:102F50000135002E00D1B7E0069513E0172306AA2D
:102F60009B180A21380001341D19FFF7E1F93031AF
:102F7000297038000A21013EFFF7DAF9092F00D83D
:102F8000E1E00700202CE9D1069D20240CAB06933C
:102F9000172706ABFF180DE028000A21FFF7A0F95C
:102FA00001343031280039550A21FFF799F9051EFF
:102FB00000D1B7E0202CEFD10323229A1340012B3C
:102FC00017D1219B002B14D00B9B002B00D1E3E0E9
:102FD000219B013B2193202B0BD93023219A06E022
:102FE00006A9013417310B55944200D3A0E0202CE0
:102FF000F6D1229B01940393219B0293069B21E02F
:10300000229B52460493219B4946039358461E9B9C
:103010001F9C029600930194434600F043F904007C
:10302000200015B0F0BCBB46B246A946A046F0BD94
:10303000229B5B070FD40322544B229901920391E8
:103040002199029100935246434649465846FFF75C
:103050009FFD0400E4E704224D4BEEE71E9A1F9B00
:1030600000200021FFF79FFB01231E901F910B936F
:1030700024E70223229A54461A40229B06929B0779
:1030800000D1ACE02600434D08942F1F3200E878B1
:1030900043464946013DD8470136BD42F6D1089C1A
:1030A000069B0434002BBBD05746219AE31B9A425F
:1030B000B6D9150022004346494620200134D8479E
:1030C000E31BAB42F6D3ABE72800FFF7FBFB0200A4
:1030D0000B001E981F99FFF766FB2B4B0022060082
:1030E0000F00FFF7C3FB0CAB0693002800D04FE79F
:1030F000002230003900244BFFF7CEFB002800D01F
:1031000046E7012301359D4342E7002206980799CF
:103110001D4BFFF7ABFB002800D01AE7002F59D159
:10312000013716E70323229A1340012B00D1A6E0B2
:10313000202C00D15DE70B9B002B3AD02D23069A63
:103140001355013455E7069D202C00D11DE730238F
:10315000361906E006AA013417321355202C00D187
:1031600013E7A642F6D12E230CAA013406929355FA
:103170000EE7C046FFFFEFFFFFFFEF7F65CDCD41BC
:1031800065CDCDC1A02F02100000E03FB8EC0110CA
:10319000B0EC0110C0EC01100C23229A134257D05E
:1031A000219B013B2193A34200D916E7202C00D19B
:1031B0001FE7229B5B0704D52B23069A1355013486
:1031C00017E7229B1B0700D413E72023069A135509
:1031D00001340EE7FB0700D4BBE60137B9E6219BBB
:1031E000042B00D84EE755464F46043CE4182A000D
:1031F0004346013539002020D847AC42F7D141E79A
:103200000227229B55461F409B0726D006975F4604
:10321000234EEC1C2A00B078434649460135B84796
:10322000013EAC42F6D1069F002F00D1F8E657468A
:10323000219AE31B9A4200D8F2E615002200434689
:10324000494620200134D847E31BAB42F6D3E7E6DA
:10325000219BA34200D9C0E6CBE6219B032BD5D905
:10326000069754464F46033DED182200434601346D
:1032700039002020D847A542F7D1069FC6E7219BF9
:10328000002B00D154E70B9B002B85D0219B013BE9
:1032900021939C4200D2A0E6202C00D04EE7A8E665
:1032A000BCEC0110F0B54546DE4657464E46E0B54B
:1032B0009BB0249C259D82468846934699462200D1
:1032C0002B0020002900FFF7ECFA002800D0C1E015
:1032D0000122200029007C4B5242FFF7DDFA002832
:1032E00000D0B7E0012220002900784B5242FFF7BE
:1032F000BDFA002800D0ADE0002200232000290004
:10330000FFF7B4FA002800D0BBE1089409950898AB
:1033100009998023289ADB001A400F928022289E68
:103320001201164032000E96289E0F000A901E428F
:1033300000D0A4E00B00034300D0CBE0002A00D073
:1033400012E2320006332693022313400C93022329
:10335000134200D00AE2279B042B00D215E200277B
:103360000426043B0E930022002320002900FFF7CF
:103370007DFA002800D0C8E1554B289A13400493E9
:103380000E9B0393269B0293089B099C0093019438
:1033900041464B465A465046FFF74AFD0200202060
:1033A000289B0025034059424B415B421840531C67
:1033B000089341464B464530D047FB17FC185C400C
:1033C000FB0F1F270A93731E0E930AABFF1806E02C
:1033D00020000A21FEF7ACFF0400202D08D00A21AE
:1033E0002000FEF7A5FF013530317955092CEFD8C3
:1033F000052306930E9B56460593002304930A3338
:1034000003930A9B4146029312AB009330004B4654
:10341000089A0195FFF710FC0C9B002B28D05F4603
:10342000279BC41BA34223D982461D003A194B4651
:10343000414620200134B047A542F7D850465946AE
:10344000279C421A01320023944200D395E10130B7
:1034500018180DE0289B009401950493279B039373
:10346000269B02934B465A4641465046FFF7E0FCE6
:103470001BB0F0BCBB46B246A946A046F0BD014316
:103480002AD10E9B3200002B00D15DE70027269B3E
:103490000026BB4200DD82E100220023200029003B
:1034A000FFF7E4F9002800D04BE1289B084A029678
:1034B0001A408023DB0013430493279B0393089B4C
:1034C000099C00930194CDE7FFFFEF7FFFFFEFFF23
:1034D000FFF7FFFF06232693B24B7800400DC0187C
:1034E000FFF7F0F9B04AB14BFFF781F9B04AB14BA1
:1034F000FFF75EF93F03B04B3F0B3B430C900D9140
:1035000000220A981900AD4BFFF74DF9AC4AAD4BBC
:10351000FFF76DF902000B000C980D99FFF748F9C1
:10352000FFF7E8F90700FFF7CDF9A74AA74B0A9084
:103530000B91FFF75CF90022A54BFFF739F9FFF774
:10354000D9F9A44A06000A980B99A34BFFF74FF943
:103550000A900B913000FFF7B5F9A04AA04BFFF796
:1035600046F902000B000A980B99FFF71CF90200BC
:103570000B000A900B91FFF73AF90C900D910A9805
:103580000B9902000B00FFF713F900221090119124
:103590000C980D99934BFFF710F90022924BFFF70F
:1035A00007F902000B000C980D99FFF706F90022AD
:1035B0008E4BFFF7FDF802000B000C980D99FFF7FA
:1035C000FCF80A9A0B9B0C900D9180210020C905F4
:1035D000FFF7E9F802000B000C980D99FFF7E8F8E7
:1035E00002000B0010981199FFF7E7F80022724BC8
:1035F000FFF7DEF87E4B0022F6183305FFF7F7F8E9
:1036000002000B000A900B9108980999FFF72EF918
:10361000002808D00A980B990022734BFFF7CDF8C9
:103620000A900B91013F0A990B9A0B0011003A0086
:103630006332C62A12D802222898042610400E9A15
:103640000C90002A26D1279B042B05D9002800D0F6
:10365000A1E0279B043B0E93042642E00222289817
:1036600010400E9A0C90002A13D1279B052B00D8EE
:1036700089E0002800D084E0279B0526053B0E93B7
:1036800032E080231B069C46AC44634608940993B1
:103690003DE605260B4300D1F9E608980999554AFD
:1036A000554BFFF7F1F8002808D008980999002237
:1036B000524BFFF7DBF8002800D0E8E6269B002BF2
:1036C00034D00F9B002B31D0269B013B2693279BA8
:1036D000B34204D90C9B002B59D002230C93002336
:1036E0000E93002F00D13EE60A9A0B9B0898099989
:1036F000FFF763F8002208900991002320002900B9
:10370000FFF7B4F8002800D136E6089C099D289AF6
:1037100080203B4B00061340220004930E9B039332
:10372000269B02932B180092019331E6279BB3420C
:10373000D5D90C9B002B2AD000230E9302330C9377
:10374000CFE7289B2E4A8020089C099D1A408023A1
:10375000DB00134322000493279B000603932B18DE
:103760000092019302967DE6052695E600230E93CE
:103770000233002704260C93F5E54B1E1B191B1A78
:1037800065E602230C930526AEE70423E7E5279BB5
:103790009B1B0E93A5E7022304260C93A1E7DB1BDA
:1037A0005E1E79E601FCFFFFFB799F501344D33F77
:1037B000B3C8608B288AC63F0000F03F0000F83F86
:1037C00061436F63A787D23F71A379094F930A4082
:1037D0000000E03F1655B5BBB16B0240EF39FAFE71
:1037E000422EE63F00002C4000002440000018401C
:1037F000FF0300002D431CEBE2361A3F80842E416C
:10380000FFF7FFFFF0B55746DE464E464546E0B5AA
:10381000A3B01F002C9B92460C93C94AC94B8B4600
:103820000B901A60002900D1BFE100233878994637
:10383000002800D1C1E1C44B4C460993C34B0E9301
:103840005B460A9308E0220053460A990B9DA8475D
:1038500001343878002876D001372528F3D1102399
:103860009B46083B9946043B9846033B00260225AD
:103870009C463878791C0300203BDBB2102B03D820
:10388000099A9B00D3589F460300303B092B36D939
:1038900000252A2800D1A7E000230D932E283FD031
:1038A0000300683BDBB2122B1BD80E9A9B00D35847
:1038B0009F4663460F001E43DBE70F002E43D8E709
:1038C00043460F001E43D4E75B460F001E43D0E77C
:1038D0004B460F001E43CCE7802378785B001E43E5
:1038E00001310F00672845D82428ACD90300253BB7
:1038F000DBB2422BA7D896499B00CB589F460025A8
:10390000AB005D196D002D1808780F000300303BE7
:10391000303D0131092BF3D900230D932E28BFD15F
:103920003022802052429046C000064378780B0037
:1039300080444246092A00D851E12A2800D15EE19C
:103940000F000131ACE70A9BA1469B46CA4503D84C
:1039500001235B425344994653464A465946002048
:103960000B9DA847200023B0F0BCBB46B246A94639
:10397000A046F0BD0300693BDBB20F2B00D962E724
:10398000012199408846734A11408B4611004246F6
:103990000A4200D013E10A2B2FD0072B00D052E7A8
:1039A0000C9D01CD002800D134E121231E43B046F7
:1039B0001F260D9A12ABF618A146944659463400BC
:1039C00002E0000920290AD00F26064032003732D3
:1039D000092E00D8073A013162540F28F1D8634606
:1039E0004C468B460D9322E10C9B20CB002D52DBE5
:1039F00078780C930F0001314EE70C9B0D9904CBA6
:103A000090469B46002900D128E14346187841445E
:103A1000002801D100F029FC0D9A94460A0004E028
:103A200059780133002900D195E19A42F8D16346D3
:103A30000D934346D31A0F93730500D46CE10F9B8B
:103A40000D9A934200D90F9202231A0032400C9231
:103A5000334200D191E20C930D9BB9461E194346A7
:103A60001B1BA84622001F000B9D08E0541C534658
:103A70000A99A847385D002800D163E122009642E8
:103A8000F4D145464F4634000C9B002B00D097E103
:103A90005B460C93DDE60222787816430F006D42F8
:103AA0000C930131F8E678786C2800D159E1802335
:103AB0005B001E43013114E780239B0078781E438E
:103AC00001310EE77878682800D150E18023013178
:103AD0001E4306E7672800D1C2E0472800D134E141
:103AE000452800D134E107210C9B0D9A07338B4305
:103AF00019000496039502920CC90B980092019349
:103B00000C91220053460A99FFF7CCFB0400A0E673
:103B1000462800D1A8E007210C9B0D9A07338B4360
:103B200019000496039502920CC90B980092019318
:103B30000C91220053460A99FFF77AF9040088E6AF
:103B400005380010E8750020042E0210482E0210DF
:103B5000942E0210419000002200534625200A991D
:103B60000B9DA847013474E60C9B04339B46631CF1
:103B70009846B60700D4FFE00C9B220018780A99FB
:103B800053460B9EB0476419012D00D849E24546C3
:103B90000B9EB8460A9F2A00534601353900202063
:103BA000B047A542F7D1474672E7DB4B38780B9315
:103BB00000239946002800D03DE60024C6E66F2881
:103BC00055D000D8BCE21023782800D19EE09E4357
:103BD0000A239C4600230F930A339B464DE00021A5
:103BE0008A00521852000133111818783039020037
:103BF000303A092AF4D90D911F00591C50E60C9B4C
:103C0000B87804CB0237D143C9170A400D920C9300
:103C1000791C45E610233000984311331843802364
:103C200080463000DB0018401E4200D1C0E643460B
:103C30000693082305930D9B2200049310230393FE
:103C4000002302935B4601931AAB00930A995346F3
:103C50000B98FEF7F1FF0C950400FAE50139D4E664
:103C600080231B011E433EE720231E4353E7082306
:103C70009C4600230F9308339B4680233000DB00D3
:103C800018401E4200D11AE10D23310099438023D0
:103C90000A009B001A409146194200D0C3E18023DC
:103CA0000A005B001A4090460C9A04320F921942A7
:103CB00000D08FE24B0600D597E10B0600D4E5E279
:103CC0000C9B1B8899464B46002B00D005E2103315
:103CD0009943002800D100E2002398460D9B0691ED
:103CE00004935B4603930023059502934346D9E072
:103CF000582808D0622878D102239C4600230F93CD
:103D000002339B46B9E720231E43103B9C46002309
:103D10000F9310339B46B0E702231A0032400C92F7
:103D2000334200D105E20C934346B9460B9E0A9FED
:103D3000A8461D1B2200534639000134B047285DB8
:103D40000028F7D145464F469EE680231B011E43BF
:103D500020231E43C7E662460D9242469B1A0F93EC
:103D60006AE6C0239B00B8781E43F91CB9E5C0235E
:103D7000B8781E43F91CB4E5012D00D84AE1631E52
:103D80009946A9444B4652462600A146BA461C0015
:103D90001700A8460B9D32003B00013620200A99EF
:103DA000A847A642F7D13B0057469A464C460C9B83
:103DB000320018780A9953460B9D4444A84767E699
:103DC000A0460F9B9D4200D862E62C190B9E4546EB
:103DD000B8460A9FE41A2A005346013539002020CC
:103DE000B047A542F7D1474652E680233200DB00B8
:103DF0001A4090461E4200D1F3E011218E43B44692
:103E00009846802362469B001A40934662461A42B7
:103E100059D180235B001A4091460C9A04320F92CC
:103E200062461A4200D0A0E163465B0600D5D4E0AA
:103E300063461B0600D412E20C9B00229B5ED8173F
:103E40001918414089B2DA0F0C92002B00D187E19A
:103E500088461F2612ABBB461495F71845464E46BA
:103E6000E046A14606E028000A21FEF761FA0500B7
:103E7000202E08D00A212800FEF75AFA01363031E8
:103E8000B955092DEFD84C46C446B1465F46149D3E
:103E9000634606930D9B059504930A2303930C9B9D
:103EA00002934B4601931AAB220000930A995346A2
:103EB0000B98FEF7C1FE0F9B04000C93C9E40C2382
:103EC00031009943E3E60822072191460C9B073312
:103ED0008B4399444A460ACB08000C92DA0F93466A
:103EE000184300D085E0002399464346002B2FD18C
:103EF000002200231092119300231F26994612AB33
:103F0000F6185B461495BB46E04637000F934E46C5
:103F1000A146109C119D05E08D2B001004000D00A2
:103F2000202E0CD00A22002320002900FEF73EFAA2
:103F300001363032BA55002DF0D1092CEED80F9B46
:103F4000109411955F464C46C446B1469B46149D5D
:103F5000634606930D9B059504930A2303935B46E2
:103F600002934B4601931AAB220000930A995346E1
:103F70000B98FEF761FE04006BE40F9B9D4200D896
:103F800096E18023DB000C930F9B2E19F61A434613
:103F90000F930D9BA84699465346BA461F000B9DAA
:103FA00022003B00013420200A99A847B442F7D1EF
:103FB0000F9B454698464B460D933B0057469A4605
:103FC00043461878002800D162E56B1C0F930C9BC8
:103FD000002B00D1A8E600233DE50C9B1B781900BF
:103FE00031E710239E43B4460BE70C9B1B789946A0
:103FF00069E6DA17129213924A40109212981399B6
:104000000A005A401192109A119B121A8B41109279
:10401000119371E70C9B220018780A9953460B9C68
:10402000A047444634E50822072690460C9B0733F8
:10403000B343984442460C921A685B681492089302
:104040001300089A134305D110339943002398466F
:10405000002838D161208B0600D5412000231F267F
:1040600098465A4612ABF618030018920F9A0A3B6C
:10407000B1461695179419974446664690469B4656
:10408000149F089D159103E007000D00202C13D00C
:104090003200002338002900FEF788F95B46D2B2CF
:1040A000D318092A01D8130030334A460134135576
:1040B000A845E9D1BE42E7D9189BA0469B46159971
:1040C000169D179C199F0D9B069104935B460393C5
:1040D000002305950293434644E761208B0600D5F3
:1040E00041201F2612ABF21803000A3B0C934B46EB
:1040F0004646A146A8461C005D461491BB461700E3
:1041000002E00400202E0DD029002000FEF710F957
:104110000C9BCB18092901D80B0030330136BB5555
:10412000AC42EED25F464C46AB4614994546B0468B
:10413000D4E50F9B9D4200D926E701330F93F3E5A9
:10414000102332009A439446692800D0A2E08023CD
:104150003200DB001A4090461E4200D151E64CE688
:104160004346002B00D093E673E60C9B1B68DA0FE6
:10417000002B70D0D9175B184B4098461F2612AB06
:10418000F618A14614955C464546BB46E046370006
:104190000C9206E028000A21FEF7CAF80500202C40
:1041A00008D00A212800FEF7C3F801343031395510
:1041B000092DEFD85F46C446A3464C46149D0C9A81
:1041C000634606930D9B059504930A23029203937D
:1041D0005B4667E60C9B1B689846002B03D11033A7
:1041E000994300282DD161208B0600D541201F2640
:1041F00012ABF61803000A3B4A460C93149143464F
:104200003100A846A1465E461400BB461D000F00C3
:1042100002E00500202C0DD031002800FEF788F8C0
:104220000C9BCB18092901D80B00303301343B55C6
:10423000B542EED223005F464C464546B34699460A
:1042400014990D9B069104935B46039300230595F7
:1042500002934B4626E64346002BB1D18EE70C9BDA
:104260001B68D81719184140EDE580233200DB00A8
:104270001A400F921E420FD00230020032400F92BD
:10428000304219D00023A0460F939AE50C9B1B687F
:10429000994618E516009BE402231A0032400C925E
:1042A000334200D08CE5002D00D06DE6FFF7F0FB27
:1042B00001330F93FFF7D0FB0C93F4E700B585B003
:1042C0000391012102900093034813004A4202A97E
:1042D000FFF798FA05B000BD212E001010B5094A6D
:1042E0000300146884B0002C08D001220091064815
:1042F000524203A9A047012004B010BD00F09EF96E
:104300000020F9E7E8750020112E001000BEFDE73F
:10431000094A1368002B06D008491818884208D8A3
:10432000106018007047064B044918181360884243
:10433000F6D901235B42F4E7C463002000000420A7
:104340005880002010B5FFF7E1FFC04670B5FDF7BB
:1043500087FE074D074EB54209D20024013E761B69
:10436000B608013608CD01349847B442FAD170BD81
:104370005CE8011064E80110030010B508001100AA
:104380001B68984710BDC046F8B5437D07000D0077
:104390001600002B38D0002A1ADD0B780A2B18D013
:1043A0000020012E09D0012421006B5C01340A2B6E
:1043B0001AD0B442F8D1864203DD311A3B6828187E
:1043C0009847AD19013D2B780D3B5A4253413B753F
:1043D000F8BD037D002BE3D102210E483B689847CE
:1043E000012EEED00120DEE76B1E5B5C0D2BE0D0D2
:1043F000884203DA091A3B682818984705480221C1
:104400003B6898472000D4E70368110028009847CC
:10441000DEE7C046F02F0210F0B5C6460B68070075
:104420000D0000B5802B06D05A1C2A60ED182F71A4
:1044300080BCB846F0BD0F4B1C68002C16D00B1D7D
:1044400098460D4E02E02469002C0FD02368002B03
:10445000F9D03368002B01D0A342F4D120004146AB
:104460002A68FFF791FF2469002CEFD10122002375
:10447000DBE7C046A0370020BC370020F0B5464639
:10448000D6464F46C0B582B090461C0006000D00CF
:10449000FDF76EFB00232F4A12184B41002B02DA66
:1044A00001222D4B52422D4908008A461AF088F904
:1044B00081466B1C03D1300019F08CFF0500002CE5
:1044C00027D0274F274B1C68002C18D04346002BC1
:1044D00021D1254B984602E02469002C0FD0236897
:1044E000002BF9D043461B68002B01D09C42F3D12E
:1044F00020002A003100B8472469002CEFD14B4638
:10450000002B23D1280002B0E0BCBA46B146A84631
:10451000F0BD164FD6E7144B984602E02469002CF4
:10452000EDD02368002BF9D043461B68002B01D047
:10453000A342F3D12A0031002000B8476B460A227B
:104540002000DA71D91D093AB847E7E750461AF05A
:10455000CFF8D7E740420F00FFFFFF7FC01A0020CF
:1045600089430010A0370020BC3700207943001099
:104570000A4A1368002B05D10CE01A001B6910329F
:10458000002B07D08342F8D1002902D118691060AE
:10459000196170470029FCD01060FAE7A0370020AD
:1045A00010B500F0EBFA10BDF0B5CE46474680B529
:1045B00083B06B460600DD1D2870FDF7D9FA002395
:1045C000194A12184B41002B02DA0122174B5242B2
:1045D0001749080089461AF0F3F8164B80461C6804
:1045E000002C14D0144F02E02469002C0FD0236853
:1045F000002BF9D03B68002B01D09C42F4D1200065
:1046000001222900FFF7C0FE2469002CEFD14346A8
:10461000002B05D1300003B0C0BCB946B046F0BD98
:1046200048461AF065F8F5E740420F00FFFFFF7FAC
:10463000C01A0020A0370020BC37002070B504004D
:1046400019F0C8FE01230100050001222000FFF738
:1046500015FF084B1C68002C06D06368002B05D0A2
:1046600098472469002CF8D1280070BD2469002CDB
:10467000F3D1F9E7A0370020F0B5CE46474680B524
:10468000A3B004000E00FDF773FA0023264A1218A7
:104690004B41002B02DA0122244B524224481AF0EB
:1046A0008FF800232200019380463300214801A99E
:1046B000FFF704FE204F019B81463C68002B19D078
:1046C000002C2FD01D4E02E02469002C0FD023684F
:1046D000002BF9D03368002B01D0A342F4D1200085
:1046E000019A02A9FFF750FE2469002CEFD10023A4
:1046F0003C680193002C06D06368002B0CD09847CF
:104700002469002CF8D14346002B07D1484623B03A
:10471000C0BCB946B046F0BD2469EBE7044819F0C7
:10472000E7FFF3E70194EEE740420F00FFFFFF7F52
:10473000C01A002019440010A0370020BC37002008
:104740000FB400B583B004A901C90191FFF794FF2C
:1047500003B008BC04B018477047C0460022014BA4
:104760001A707047488000204B790020FF2B0BD136
:104770008B79002B08D1CB79012B05D1082A03D9DD
:10478000024B8A7809301A707047C0464880002072
:104790000120704710B5012913D1124953791079BE
:1047A00009781B0203430020994200D010BD5378C2
:1047B000012B08D0022BF9D1642200210020FDF743
:1047C00035FB0120F2E7D37891781B021943480AA0
:1047D000DB0501D4012040427F238A05D20F194016
:1047E000FDF7ACFB4880002000487047BC30021049
:1047F0009446012310B501290AD152780023012AD9
:1048000006D162461179527912020A43072A01D071
:10481000180010BDA6336146024A01F071FA030088
:10482000F6E7C046143002100123037000487047B9
:10483000F42F02104B780A781B0213438A7810B5C4
:1048400012041A43CB781B0613439622D2009342DC
:1048500000D010BD0022012011004042FDF76EFB88
:10486000024B1860024B19607047C046382E00207A
:104870003C2E002010B5024B1878FCF75DF910BDF6
:104880004C800020154B70B51A68002A22D0EFF337
:10489000108172B610680028FCD0BFF35F8F002033
:1048A0000F4A596010701B68BFF35F8F186081F367
:1048B0001088002400250B4E3078FCF731F90028D1
:1048C00004D1002400252900200070BD3078FCF7B9
:1048D00033F9F8E7FA240025A400ECE72C76002051
:1048E0004E8000204C80002070B5050000200E0096
:1048F00001F01EFB002834D0002001F02FFB00281F
:104900002FD0FDF735F90023174A12184B41002B21
:1049100016DB164C200019F053FF002821D0002090
:1049200001F006FB00280FD101200021404200F0D9
:104930001DFD03256D42200019F0DAFE280070BD30
:1049400001220B4B5242E4E7002001F007FB002854
:10495000EAD029003200002001F00AFB051EEAD14E
:10496000E7E703256D42E9E740420F00207F002082
:10497000FFFFFF7F10B5FDF7FBF800230D4A12186B
:104980004B41002B02DA01220B4B52420B4819F02B
:1049900017FF00280CD001200021404200F0E6FC67
:1049A000002001F029FB0028F5D1044819F0A0FEF1
:1049B00010BDC04640420F00FFFFFF7F207F002058
:1049C000F8B5CE46474680B505000C00FDF7D0F897
:1049D0000023344A12184B41002B02DA0122324BD9
:1049E000524232490800884619F0EAFE002803D1F5
:1049F000C0BCB946B046F8BD002001F099FA0028C5
:104A000048D00026002C41DD294B994613E0A91916
:104A1000002001F02DFB070001200021404200F0A2
:104A2000A5FC002001F0E8FAFDF7A2F8204BF619EA
:104A300003C3B4422ADD002001F03AFBA71B0200A9
:104A4000B84200DD3A00002AE1D1012000214042B5
:104A500000F08CFC002001F0CFFA002001F068FA91
:104A6000002813D0002001F023FB0028E1D1FDF73E
:104A70007FF84B460F000CCB002184460D481218DE
:104A80004B419F4202D8D4D19445D2D9404619F027
:104A90002FFEADE700200021054B03C3404619F06F
:104AA00027FEA5E740420F00FFFFFF7F207F002089
:104AB000A81D002020A1070030B5002185B028489E
:104AC00019F05EFE00281CD1264B1A68002A16D069
:104AD000EFF3108172B610680028FCD0BFF35F8F2F
:104AE00001242148596002781B68D2B20470BFF3D8
:104AF0005F8F0020186081F31088002A17D005B05E
:104B000030BD01200021404200F030FC002001F0C7
:104B100025FA0500124819F0EBFD002DEFD0134BDC
:104B20001B68002BEBD0124A10689847E7E7FCF7A8
:104B30000DFD0400FDF71CF8FA2200239200121864
:104B40004B41002B02DA01220A4B52420121029111
:104B500000210191084920000091FCF779FDCEE782
:104B6000207F00202C7600204E800020382E002050
:104B70003C2E0020FFFFFF7F85480010D02310B59A
:104B80001B0684B01C68FCF7E1FCFCF75FFEA0424A
:104B900002D0002004B010BD284B002100201B785B
:104BA00001F06EFD26480368002B44D00120FCF77D
:104BB00047FAFF23234C244920701840FBF7D4FF09
:104BC00020780121FBF79AFF0520FBF7BDFF0028A5
:104BD00024D1082200211D48FDF7CCFFFCF7B6FCCC
:104BE0000400FCF7C5FFFA220023920012184B4183
:104BF000002B02DA0122164B5242012102910021C0
:104C00000191144920000091FCF722FD0028C0DB2F
:104C100011480121FFF7ACFC0120BBE70120FBF7A5
:104C20002BFF01000948FCF789FA002205200B49F7
:104C3000FBF7C4FFECE7FCF757FAB7E7B8F105104C
:104C4000207F00204C800020B94A00102C760020E4
:104C5000FFFFFF7F854800102014002075480010DA
:104C600010B5002001F064F910BDC046004870473F
:104C700058310210004870470431021010B504008A
:104C800016480378002B20D0002C06D1144B154871
:104C90004380063BFF3B038010BD052C1CD8124B04
:104CA000A400E4580F480123811C013C04E00133B7
:104CB0000A800231142B0CD0E25C002AF7D1C0220A
:104CC000DBB25B0092001343E5E7112100F01EF810
:104CD000DAE7CA239B00DEE70020DDE73C7F002007
:104CE0000904000078370020EC30021010B50248AB
:104CF00000F0FCF810BDC0465476002010B5082224
:104D00000149FDF73DFF10BD5476002030B5012963
:104D100000D1BBE0744B01391A7812111400303401
:104D2000092A00DDB5E00470012900D1DAE00F2284
:104D30001C78224014003034092A00D9ACE04470B9
:104D4000022900D1CEE05A78944612111400303472
:104D5000092A00DDA3E08470032900D1C2E0644683
:104D60000F22224014003034092A00D99AE0C4707E
:104D7000042900D1B6E09A78944612111400303418
:104D8000092A00DD91E00471052900D1AAE06446FA
:104D90000F22224014003034092A00D988E04471DF
:104DA000062900D19EE03025AC46DC7822119444DF
:104DB000092A00DD7FE062468271072900D191E077
:104DC0000F22224014003034092A00D977E0C47140
:104DD000082900D186E03025AC461C792211944484
:104DE000092A00DD6EE062460272092900D179E0ED
:104DF0000F22224014003034092A67D844720A294D
:104E000000D16FE03025AC465C7922119444092A28
:104E10005FDC624682720B2964D00F2222401400AC
:104E20003034092A59D8C4720C295BD03025AC46DD
:104E30009C7922119444092A02DD0735AC4694443A
:104E4000624602730D294DD00F22224014003034E7
:104E5000092A01D93732140044730E2942D0DA7975
:104E600013111C003034092B01DD37331C0084730F
:104E70000F2937D00F2313401A003732092B01D8DE
:104E800030331A00C27310292CD010300023037065
:104E900030BD3732140046E7373214004FE737325F
:104EA000140058E73732140061E7373214006AE71C
:104EB0003732140073E70735AC4694447BE737324A
:104EC000140084E70735AC4694448CE7373214006D
:104ED00094E70735AC4694449BE737321400C4721C
:104EE0000C29A3D14018D1E75476002010B588B022
:104EF00004000D2200216846FDF73CFE0D22002132
:104F000004A8FDF737FE4B236A466846137004A9D0
:104F10000D2219F0DDFB1521082220006944FDF760
:104F20002FFE08B010BDC046F8B500F047F90C23BD
:104F3000194DFF22AB6705201849FBF73FFE184CBF
:104F4000402200212000FDF715FE40270023012606
:104F50002121144A66702783A260136063545F3175
:104F6000618445396354104A10496360E2602787C1
:104F7000A1620B606362E26219F0B2FB80239B05C1
:104F80002E64EB6490230A4A0120EA508022094BE8
:104F90005202DA64F8BDC04600001150A508002096
:104FA000406E00208400105000011050800010500E
:104FB00010D001000020115010B501210520FBF791
:104FC0009DFD10BD10B500220021024800F016F929
:104FD00010BDC046606E0020044B1970002904D03B
:104FE00080219023024A8902D150704741800020DD
:104FF000002011500B785B0600D070474B78052BD2
:10500000FBD18A78014B1A60F7E7C04600001150C7
:10501000F8B5CE464746C87880B58007830F18009C
:10502000012B61D08B780A799C464B797F211B023A
:1050300013435B055E0D63461940DC094B001A19EA
:105040001F0063462F4D5201AA189370012363403D
:10505000537000231683D370D076B146CA00012C5A
:1050600031D0294E92198E01B446AC446646B260E6
:105070001360002931D0254BC900C91871604B4617
:105080003F339B09022836D09B0121483919026819
:10509000490169180E00CA601E49D31803608B428B
:1050A0002BD83B195B01ED18EB7E1B499B064A4050
:1050B00013438022120613436A6813600120C0BCA8
:1050C000B946B046F8BD154E92198E01B446AC44AF
:1050D0006646B2621360002908D1002364012C19CE
:1050E00063600F4BE360E9E70020E8E70A4BC90083
:1050F000C9187162C3E7DB01C7E7FCF7ABFFF268D1
:10510000CFE7C046406E00208400105004001050CD
:1051100008760020FF0F1050000010508000105043
:105120000001105010B519F0DBFA10BD7F2010B54A
:1051300008404000C90940181100044A4001801885
:105140001A0000F05BF8012010BDC046406E002040
:105150007F23180000B5084083B00B4204D14B42B6
:105160004B41084A013393668022C9094000064B2F
:10517000401840010021C018120119F039FB03B09A
:1051800000BDC04600201150406E00207F22130059
:1051900010B50B400A4200D110BDC9095B005B1875
:1051A00004485B01C018002300220349C37019F0B2
:1051B0001FFBF1E7406E0020FFF7FFFF80220A4B44
:1051C000520410B51A60094B09491A6010000B68A7
:1051D0009843FBD18022002152010648FDF7CAFC0A
:1051E0000922054B5A6710BD00E0004000F0004066
:1051F00008C000400000105000001150002310B5FE
:10520000C3820133828283760161040019F080FA3F
:10521000002804D080219023074A8902D150200021
:1052200019F086FA002802D00123237710BD200050
:1052300019F0CEFAFAE7C046002011507047C04678
:105240007047C04600207047002070477047C04636
:105250007047C0467047C0467047C046024B5878FA
:10526000431E9841C0B2704710210020024B1878AD
:105270004007C00F7047C04610210020F0B5D64649
:105280004F464646C0B52E4B814698461B788A4607
:10529000FF2B4ED100293ED0002154222948FDF792
:1052A00069FC0022284C294B20001A70FBF71CFFD8
:1052B000274B1C60274C2000143CFBF731FF2000DB
:1052C00001F0DAFD244B254D1C60254B002B04D04A
:1052D0002800FFF7A9FA234B1860002400232A783E
:1052E000214F204E0FE0336862019B18002B12D033
:1052F0005B68002B0FD098472A780134E4B2511C28
:105300002300A14209DBA242EDD89B1A5B01DB1905
:105310005B68002BEFD100200CE042464B46514623
:1053200048461370FFF700FE0028F4D04846FFF708
:1053300043FE0120E0BCBA46B146A846F0BDC046D7
:105340005414002010210020082100204280002059
:10535000642100204C14002068210020408000209F
:10536000294800102820002014320210F0B5DE4633
:1053700057464E464546E0B5C64B91B002931B7862
:10538000FF2B00D13BE1C44BC44E1F00C44B0DACFE
:105390000193C44B009335686A69EFF3108172B6CC
:1053A0001368002BFCD0BFF35F8FA9612800210098
:1053B00001F098FB6A69AB69BFF35F8F0021116050
:1053C00083F31088002800D119E16378082BE2D814
:1053D0009B00FB589F466368002BDCD0A068984771
:1053E000D9E77F222179AE4D0A405300EB18984649
:1053F000C809804440460123303005799D4305713A
:10540000057903339D430571002A00D1FEE0434630
:10541000A54A1B7D1278934200D3EDE0A34A5B01BD
:105420001568ED18002D00D1E9E0A36862792078B5
:10543000AD69A847AFE79E4B1A78002A00D1DEE09D
:105440001A78013A1A701B78002BA4D10122944DCE
:1054500001212B78042013432B703423EA5C8A4308
:10546000EA54EA5C8243EA540133EA5C8A43EA5430
:10547000EA5C8243EA54237800209B4600F09AFCC1
:10548000602223791A40602A00D1EEE0402A00D140
:10549000F4E0DB06DB0E012B00D111E1022B00D181
:1054A000C6E0002B00D0E0E0202A00D11CE2002A58
:1054B00000D0DAE06379092B00D9D6E07D4A9B0061
:1054C000D3589F46764D2B78DB0700D463E7FFF770
:1054D000C3FE60E7019BDB78DB0700D45BE7606815
:1054E000FFF7AEFE57E76E4D2B78DB0700D452E78F
:1054F00028780007C00FFFF7ADFE4CE72378694915
:1055000099468B46684B694998468A4639001A780D
:1055100047460023B04600254E46894610E05346D4
:105520001B686A019B18002B00D175E0DB68300016
:1055300098473A780135EDB2511C2B008D4243DC7F
:105540009542ECD39B1A5B015B44EFE72378574904
:105550009946554B8A4698463100BB464E461A78C6
:1055600000250023474689460FE053461B686A0121
:105570009B18002B54D0DB68300098473A780135EF
:10558000EDB2511C2B008D4206DC9542EDD39B1AE7
:10559000009A5B01D318EEE7019D542200212800F8
:1055A000FDF7E8FA1022FF214348FDF7E3FA28004F
:1055B0002022FF2114304E465F46FDF7DBFA00F053
:1055C000EFFBFFF745FEE6E6354D542200212800AB
:1055D000FDF7D0FA1022FF21281DFDF7CBFA280095
:1055E0002022FF21143046464F46FDF7C3FA00F053
:1055F000D7FB2379AB70CEE6501C984213DA11B07A
:10560000F0BCBB46B246A946A046F0BDA36862798D
:10561000207800F0E3FBBEE646464F46204DE6E725
:105620004E465F46CBE71F4D9B1A5B015D19FCE6BA
:105630007023217A0B4218D1C80982460F330B40E0
:105640005B0098461848EB1853441B7D0078994638
:10565000834268D215485B01006881469944002A5C
:1056600000D163E14B46002B6AD120780021FFF77F
:105670006FFD80212078FFF76BFD8CE60F4800F06E
:1056800099FB012158460EAAFFF7B2F8002800D076
:1056900081E6EAE7541400206C31021068210020F2
:1056A0001021002014320210408000202820002009
:1056B000428000209031021014210020F147001098
:1056C000237A22890F2BD0D8FF231340CF4AEB181F
:1056D0001B791578AB423ED3691C9942C5DB5D1B33
:1056E000CB4B6D01ED18686900F064FB0121584651
:1056F0006B690EAA9847002800D04CE6602215007E
:1057000023791D401A42B0D163790A3B012BACD8F2
:1057100000F050FB63790A2B00D199E158460EA99D
:1057200000F0D8FA37E6431C4B4500DAF9E04B4667
:105730001B1A5B019946B6488144002A00D1F5E066
:105740004B46586900F036FB4B46012158465B69D1
:105750000EAA98479AE7AF4A5B011568ED18002D2D
:10576000C1D182E7A37999466B789945D6D06B78F9
:10577000002B00D035E14B466B70002B00D12DE1A2
:1057800048460138C0B2FFF775FA002800D17EE123
:1057900043780793022B00D079E10122C179B14609
:1057A0008B11491113400A40302112015B01134350
:1057B0002A78A8468A4313432B7009239A468244C9
:1057C0005646BA46C37882781B021343C318059322
:1057D0008E4B04938E4B08938E4B09938E4B0A93FA
:1057E000059BB34200D855E1737801220B2B03D1FE
:1057F0003378F278F6187378042B00D044E1059BD7
:1058000000279B1B9BB20693049B0B921D780023E1
:1058100003931BE0099A7B011568ED18002D00D158
:1058200032E1310058462B69069A98478446082889
:1058300003D9069A824200D313E1049B01371D78F5
:10584000FFB26B1C03979F4200DD1DE1BD42E1D812
:10585000039B5D1B089B6D015D19E2E76B780CAA49
:1058600002321370584601230EA900F049FA92E55E
:10587000E088030AC0B20F2B00D9F6E667499A0008
:105880008A5897460EA800F09BFA5846A179FFF770
:1058900099FB02222B7813432B707CE5E388012BC4
:1058A00000D0E2E608222B78584693430EA92B70CD
:1058B00000F010FA6FE5022029780CAB9A1C8B06D9
:1058C0008908DB0F01400B431380584602230EA9C1
:1058D00000F016FA5FE5E388012B00D0C5E6082248
:1058E0002B7813432B7019E7237A22890F2B00D9C9
:1058F000BBE6FF231340EB181D79444B1B789D42F8
:1059000028D2444B6D011B685D19002D00D1ACE617
:10591000686900F04FFA012158466B690EAA984752
:10592000B4E6002A00D0A0E600239946627902205E
:10593000130003928343012B15D0002A00D094E674
:105940002B004344534430331B790CAA9B07DB0FD5
:105950000232B9E75A1CAA4200DA86E6ED1A2C4B4D
:105960006D01ED18D4E7E388002B12D1029B187863
:10597000039B012B23D0FFF7EBFB43460221EB18DF
:10598000534430331A790A4301211A711A790A43B0
:105990001A714B46002B00D1FDE4586900F00AFA59
:1059A0004B4601215B690EAA58469847002000F03B
:1059B00001FA3523EB5CDB0700D5ECE4AEE6FFF73C
:1059C000E5FB43460221EB18534430331A798A43EE
:1059D0001A711A7903998A431A71DAE7FFF738FCCA
:1059E0009CE600215846FFF7F7FA5846FFF79AFB66
:1059F000AB7807490393054B049198461A78002326
:105A00000449AA4605911D001BE0C04640800020C5
:105A1000143202102820002024210020B831021066
:105A2000059B6A011B689B18002B4CD0DB6858460D
:105A3000984743461A780135EDB2511C2B008D4230
:105A40002DDC9542ECD39B1A049A5B01D318EDE749
:105A50000CAB9A1C584601230EA9157000F050F9A2
:105A600099E40B9A012A4ED0002A3CD00023B0784A
:105A700004E00133DBB20F71934234D2C118C9B2D2
:105A800041440D79FF2DF4D04E464546574600233C
:105A90006B70EAE54E465746FFF7D8FB3EE65546A3
:105AA000542200212800FDF765F81022FF21281D4F
:105AB000FDF760F828002022FF211430FDF75AF886
:105AC000039BAB7057E65546FAE7FEF78DFE021EC4
:105AD00000D1CAE5D37891781B020B4358460EA932
